:020000000029D5
:10020000031383160F178F120F160F14031783167D
:10021000880189010313831605148514860187015B
:1002200088018901031383128501860187018801F2
:1002300089010313831681128111011581140114A0
:1002400003138312F1013D308100F201F3017314B5
:10025000870A05186121051C632185186C21851CFE
:100260006E210B1D31290B113D308100F10A7108FF
:100270000A3C031D2829F101860A3D308100031143
:1002800073080F39F30006080F397302031D28297C
:100290008601F4097408890028298A010A140F3993
:1002A0008207C034F934A434B0349934923482349F
:1002B000F8348034903488348334C634A13486349E
:1002C0008E3470140800701C0800F20A72084D2168
:1002D0008800F001F30A0800F0140800F01C080080
:0E02E000F20372084D218800F001F3030800BC
:04400E00D420FF3F7C
:00000001FF
